:020000040800F2
:1000000000000120C5020008CB020008CF02000852
:10001000E7020008EB0200080303000800000000EC
:100020000000000000000000000000001B030008AA
:100030001F03000800000000230300082703000836
:1000400035030008350300083503000835030008B0
:1000500035030008350300083503000835030008A0
:100060003503000835030008350300083503000890
:100070003503000835030008350300083503000880
:1000800035030008350300083503000800000000B0
:100090000000000000000000000000003503000820
:1000A0003503000835030008350300083503000850
:1000B0003503000835030008350300083503000840
:1000C0003503000835030008350300083503000830
:1000D0003503000835030008350300080000000060
:1000E0003503000835030008350300080000000050
:1000F00000000000000000000000000035030008C0
:10010000000000003503000835030008350300082F
:1001100000000000000000000000000000000000DF
:1001200035030008350300083503000835030008CF
:10013000350300080000000000000000000000007F
:10014000000000000000000000000000350300086F
:10015000350300083503000835030008350300089F
:10016000350300083503000800000000000000000F
:10017000000000000000000000000000000000007F
:10018000000000003503000800000000000000002F
:100190003503000800B583B000F0CAFD384B394A7A
:1001A0001360394A1360394906E052F8041B43F8DA
:1001B000041B9842F9D86146354B994205D20A682A
:1001C0004B6801F10C0C8868F3E72E4B1A68314B31
:1001D0009A4200D0FEE72C4B1A682F4B9A42F9D175
:1001E000274B2E4A13602E4A13602E4A00E0024627
:1001F0002D4B9A4209D2104650F8083B516899425B
:10020000F5D9002243F8042BF9E7244B1B6813B9F6
:10021000234B1B6803B1FEE700F03CFE694601A8D2
:1002200000F07EFD214C224BE41AA410002504E0CE
:100230001F4B53F8253098470135AC42F8DC1D4C74
:100240001D4BE41AA410002504E01B4B53F8253085
:1002500098470135AC42F8DC0099019800F023FE84
:100260000546164C164BE41AA41004E0013C144B4E
:1002700053F824309847002CF8DC284600F04EFD57
:10028000BABADECA000000201800002038030008B7
:100290005003000878563412325476981C0000201F
:1002A00028000020500300086003000860030008D5
:1002B0006003000860030008600300086003000892
:1002C0006003000808B5FFF765FF00BEFEE71EF0FB
:1002D000040F0CBFEFF30880EFF309807146124A58
:1002E000104700BEFEE700BEFEE71EF0040F0CBF85
:1002F000EFF30880EFF3098071460C4A104700BE07
:10030000FEE71EF0040F0CBFEFF30880EFF3098047
:100310007146074A104700BEFEE700BEFEE700BE7A
:10032000FEE700BEFEE77047E3020008FF02000898
:080330001703000800BEFEE700
:1003380024120008000000201C00002024120008DD
:1003480000000010000000101C0000202C000020FD
:0803580000000010000000107D
:1003600010B504460E4B1A784FF47A73B3FBF2F3D0
:100370000C4A1068B0FBF3F000F09CF868B90F2C41
:1003800001D901200AE0002221464FF0FF3000F0A1
:100390004BF8054B1C60002000E0012010BD00BFA1
:1003A00004000020140000200800002008B50B4BBA
:1003B0001A6842F400721A601A6842F480621A6085
:1003C0001A6842F480721A60032000F00FF80F20C0
:1003D000FFF7C6FF00F068FD002008BD003C0240AA
:1003E000014B1868704700BF2000002010B504467C
:1003F000C31E042B0FD80A4AD36823F4E0631B04FE
:100400001B0C240204F4E064234343F0BF6343F471
:100410000033D36010BD9221024800F043FDEAE7AB
:1004200000ED00E0A811000870B505460C46164620
:100430000F2A25D80F2C28D81B4BDB68C3F30223C7
:10044000C3F10702042A28BF0422191D062921D955
:10045000033B4FF0FF3101FA02F224EA02049C4010
:10046000994026EA010644EA0602002D14DB120137
:10047000D2B205F1604505F5614585F8002370BDF0
:10048000AA210A4800F00EFDD4E7AB21074800F08E
:1004900009FDD1E70023DCE705F00F051201D2B218
:1004A000034B5A55EBE700BF00ED00E0A811000830
:1004B00014ED00E00138B0F1807F0BD24FF0E02363
:1004C0005861054AF02182F8231000209861072224
:1004D0001A6170470120704700ED00E010B5044636
:1004E000042800D040B9042C0CD04FF0E02213694E
:1004F00023F00403136110BD40F2C911054800F058
:10050000D1FCF0E74FF0E022136943F004031361DC
:10051000F1E700BFA8110008002800F05B8270B569
:1005200082B0044603680F2B39D8236813F0010FFB
:100530004DD063682BB1B3F5803F02D0B3F5A02F47
:1005400032D1804B9B6803F00C03042B36D07D4BDB
:100550009B6803F00C03082B2BD06368B3F5803F36
:100560005FD0B3F5A02F62D0764B1A6822F48032A8
:100570001A601A6822F480221A606368002B60D027
:10058000FFF72EFF05466F4B1B6813F4003F1ED18B
:10059000FFF726FF401B6428F5D9032021E2E8215C
:1005A000694800F07FFCC0E7ED21674800F07AFC65
:1005B000C7E7644B5B6813F4800FCED0614B1B68B8
:1005C00013F4003F03D06368002B00F0058223681A
:1005D00013F0020F66D0E368012B41D823691F2B6B
:1005E00044D8584B9B6813F00C0F4AD0554B9B686E
:1005F00003F00C03082B3FD0E368002B77D0534B5C
:1006000001221A60FFF7ECFE05464E4B1B6813F003
:10061000020F63D1FFF7E4FE401B0228F5D9032047
:10062000DFE1484A136843F480331360A5E7454B84
:100630001A6842F480221A601A6842F480321A6002
:100640009BE7FFF7CDFE05463E4B1B6813F4003FCA
:10065000BDD0FFF7C5FE401B6428F5D90320C0E1DB
:1006600040F21F11384800F01DFCB7E74FF49071BD
:10067000354800F017FCB4E7324B5B6813F4800F89
:10068000BAD1304B1B6813F0020F03D0E368012B83
:1006900040F0A4812B4A136823F0F803216943EA50
:1006A000C1031360236813F0080F51D06369012B55
:1006B0002FD863699BB3254B0122C3F8802EFFF727
:1006C0008FFE05461F4B5B6F13F0020F40D1FFF703
:1006D00087FE401B0228F5D9032082E1194A1368DE
:1006E00023F0F803216943EAC1031360DAE7174BEB
:1006F00000221A60FFF774FE0546124B1B6813F0C8
:10070000020FCFD0FFF76CFE401B0228F5D9032063
:1007100067E14FF4B0710C4800F0C4FBC9E70B4B24
:100720000022C3F8802EFFF75BFE0546054B5B6F8A
:1007300013F0020F0CD0FFF753FE401B0228F5D92F
:1007400003204EE100380240DC110008000047425F
:10075000236813F0040F7CD0A368012B01D9052B6B
:1007600038D1A44B1B6C13F0805F39D10023019367
:10077000A04B1A6C42F080521A641B6C03F0805339
:100780000193019B01259C4B1B6813F4807F29D0AA
:10079000A368012B3AD0052B3ED0964B1A6F22F05E
:1007A00001021A671A6F22F004021A67A368002B6D
:1007B0003CD0FFF715FE06468E4B1B6F13F0020F61
:1007C00045D1FFF70DFE801B41F288339842F3D9E3
:1007D000032006E14FF4C671884800F063FBC0E7D0
:1007E0000025D0E7844A136843F480731360FFF751
:1007F000F7FD0646804B1B6813F4807FC8D1FFF7D6
:10080000EFFD801B0228F5D90320EAE0794A136F37
:1008100043F001031367C9E7764B1A6F42F00402F5
:100820001A671A6F42F001021A67BFE7FFF7D8FD97
:100830000646704B1B6F13F0020F08D0FFF7D0FD78
:10084000801B41F288339842F3D90320C9E0002D80
:100850003ED1A369022B41D8A369002B00F0C080D0
:10086000644A926802F00C02082A00F09380022B7E
:100870007CD1E36913B1B3F5800F35D1236A3F2BE7
:1008800038D8636A323BB3F5BF7F39D8A36A022BED
:1008900008D0082B3AD84FF4A87222FA03F313F0C9
:1008A000010F33D0E36A023B0D2B35D8544B0022A5
:1008B0001A66FFF795FD05464E4B1B6813F0007F47
:1008C00030D0FFF78DFD401B0228F5D9032088E0CA
:1008D000484A136C23F080531364BAE740F2CF11F7
:1008E000464800F0DFFAB7E74FF4EC71434800F0F8
:1008F000D9FAC3E740F2D911404800F0D3FAC0E773
:100900004FF4ED713D4800F0CDFABFE740F2DB1146
:100910003A4800F0C7FAC5E74FF4EE71374800F0E7
:10092000C1FAC3E7E369226A1343626A43EA8213A6
:10093000A26A5208013A43EA0243E26A43EA0263C6
:100940002C4A53602E4B01221A66FFF749FD0446DC
:10095000284B1B6813F0007F06D1FFF741FD001BF9
:100960000228F5D903203CE000203AE0244B002285
:100970001A66FFF735FD04461E4B1B6813F0007F17
:1009800006D0FFF72DFD001B0228F5D9032028E033
:10099000002026E0012B26D0164B5B6803F4800173
:1009A000E269914221D103F03F02216A8A421ED1BD
:1009B000616A47F6C0721A408A4223D103F440327A
:1009C000A16A8A4220D103F07063E26A93421DD18A
:1009D000002006E001207047012002E0012000E035
:1009E000002002B070BD0120FBE70120F9E70120E3
:1009F000F7E700BF0038024000700040DC1100083B
:100A0000000047420120ECE70120EAE70120E8E787
:100A100008B5334B9B6803F00C03042B5BD0082B09
:100A20005BD12F4B5A6802F03F025B6813F4800FD2
:100A30002CD02B4B5868C0F388104FEA401CBCEBFD
:100A4000000C6EEB0E0E4FEA8E1343EA9C634FEAE6
:100A50008C11B1EB0C0163EB0E03DB0043EA517325
:100A6000C90011EB000C43F10003590200234FEAC7
:100A70004C2041EADC5100F019FA194B5B68C3F3D2
:100A8000014301335B00B0FBF3F027E0144B5868DF
:100A9000C0F388104FEA401CBCEB000C6EEB0E0E4E
:100AA0004FEA8E1343EA9C634FEA8C11B1EB0C01C1
:100AB00063EB0E03DB0043EA5173C90011EB000C3A
:100AC00043F10003990200234FEA8C2041EA9C5134
:100AD00000F0ECF9D1E7034800E0034808BD00BF8F
:100AE0000038024000127A000024F400002800F0D0
:100AF000FA8070B50D4604460368013B0E2B30D8D2
:100B0000072D34D87C4B1B6803F00F03AB4208D28F
:100B1000EBB2794A1370136803F00F03AB4240F055
:100B2000E480236813F0020F32D013F0040F04D0D6
:100B3000724A936843F4E0539360236813F0080FFC
:100B400004D06E4A936843F460439360A368C3B1D2
:100B5000C02B16D049D8A02B13D00ED9B02B10D053
:100B600049E040F25121664800F09CF9C8E740F2A4
:100B70005221634800F096F9C4E7802B01D0902BF6
:100B800039D15E4A936823F0F003A1680B43936068
:100B9000236813F0010F48D06368032B31D86368D2
:100BA000012B34D09A1E012A38D9544A126812F007
:100BB000020F00F09C8051498A6822F0030213431F
:100BC0008B60FFF70DFC06464C4B9B6803F00C0353
:100BD0006268B3EB820F28D0FFF702FC801B41F262
:100BE00088339842F0D9032070E0E02BC9D0F02B75
:100BF000C7D0D02BC5D040F27521414800F052F942
:100C0000BFE74FF41F713E4800F04CF9C7E73B4A7D
:100C1000126812F4003FCED1012057E0374A126823
:100C200012F0007FC7D1012050E0334B1B6803F066
:100C30000F03AB4207D9EAB22F4B1A701B6803F0BF
:100C40000F03AB4255D1236813F0040F14D0E368AF
:100C50005BB1B3F5805F08D0B3F5A05F05D0B3F505
:100C6000C05F02D0B3F5E05F31D1244A936823F42A
:100C7000E053E1680B439360236813F0080F15D02D
:100C800023695BB1B3F5805F08D0B3F5A05F05D0F1
:100C9000B3F5C05F02D0B3F5E05F1ED1174A936889
:100CA00023F46043216943EAC1039360FFF7B0FE78
:100CB000124B9B68C3F30313124AD35CD840124B08
:100CC0001860124B1868FFF74BFB002070BD40F214
:100CD000BA210B4800F0E6F8C7E740F2C121084806
:100CE00000F0E0F8DAE7012070470120EEE701208C
:100CF000ECE70120EAE700BF003C02400038024078
:100D0000DC1100080C12000814000020080000206C
:100D1000014B1868704700BF14000020FEE7000078
:100D200001230360014B0B60704700BF0C000020E3
:100D300008B500F009F8024A024B9A6008BD00BFEE
:100D40000000000800ED00E0024B4FF000629A60E6
:100D5000704700BF00ED00E0224B9B6803F00C03DE
:100D6000042B14D0082B16D01BB11F4B1F4A1A603E
:100D700002E01D4B1D4A1A601A4B9B68C3F3031314
:100D80001B4AD15C184A1368CB4013607047164B5E
:100D9000184A1A60F0E7134B59685A6802F03F028C
:100DA00011F4800F13D0134BB3FBF2F30D4A5268CA
:100DB000C2F3881202FB03F30A4A5268C2F30142EB
:100DC00001325200B3FBF2F3074A1360D4E7074B3A
:100DD000B3FBF2F3034A5268C2F3881202FB03F337
:100DE000EAE700BF00380240140000200024F400AD
:100DF0000C12000800127A0070B594B0002401941F
:100E0000214B1A6C42F080521A641B6C03F0805321
:100E10000193019B02941D4B1A6842F440421A60F0
:100E20001B6803F440430293029B012308934FF491
:100E3000803309934FF480030F93082310934FF4EA
:100E4000A8731193042612960723139302250E9577
:100E500008A8FFF761FB0F230393049505944FF453
:100E6000805306930794294603A8FFF73FFEFFF738
:100E70004FFF074BA3FB00308009FFF71BFB3046F9
:100E8000FFF72CFB14B070BD00380240007000402A
:100E9000D34D621008B5FFF789FAFFF7ADFFFFF7F2
:100EA0005BFF08BDFEE7FEE77047000053B94AB993
:100EB000002908BF00281CBF4FF0FF314FF0FF3062
:100EC00000F070B9ADF1080C6DE904CE00F006F841
:100ED000DDF804E0DDE9022304B070472DE9F047B6
:100EE000089E0D4604460F46002B4AD18A4294467E
:100EF00065D9B2FA82F343B102FA03FCC3F12002CE
:100F00009F4020FA02F217439C404FEA1C4E1FFA02
:100F10008CF5B7FBFEF1220C0EFB117742EA07427B
:100F200001FB05F090420AD91CEB020201F1FF37E8
:100F300080F01B81904240F2188102396244121AFB
:100F4000A4B2B2FBFEF00EFB102244EA024400FB06
:100F500005F5A5420AD91CEB040400F1FF3280F02C
:100F60000681A54240F203816444023840EA014010
:100F7000641B00211EB1DC400023C6E90043BDE82C
:100F8000F0878B4208D9002E00F0EC800021C6E9E2
:100F900000050846BDE8F087B3FA83F1002949D17E
:100FA000AB4202D3824200F2F780841A65EB03025F
:100FB00001201746002EE2D0C6E90047DFE702B95C
:100FC000FFDEB2FA82F3002B40F08F808A1A4FEADC
:100FD0001C471FFA8CFE0121B2FBF7F507FB152019
:100FE000220C42EA00420EFB05F0904208D91CEBAD
:100FF000020205F1FF3802D2904200F2CA80454653
:10100000121AA4B2B2FBF7F007FB102244EA024422
:101010000EFB00FEA64508D91CEB040400F1FF32CC
:1010200002D2A64500F2BA801046A4EB0E0440EAB4
:1010300005409FE7C1F120078B4022FA07FC4CEAEC
:10104000030C05FA01F420FA07F3FD40234300FAEC
:1010500001F94FEA1C401FFA8CFEB5FBF0F81C0C9E
:1010600000FB185544EA054408FB0EF5A54202FAB8
:1010700001F20BD91CEB040408F1FF3A80F08780E1
:10108000A54240F28480A8F102086444641B9DB22A
:10109000B4FBF0F300FB134445EA044403FB0EFEEB
:1010A000A64508D91CEB040403F1FF306BD2A6451A
:1010B00069D9023B644443EA0840A0FB0283A4EBE5
:1010C0000E049C42C6461D4655D352D056B1B9EBCC
:1010D0000E0364EB050404FA07F7CB40CC401F4332
:1010E000C6E900740021BDE8F087C3F1200102FACF
:1010F00003FC20FA01F225FA01F19D402A434FEA50
:101100001C471FFA8CFEB1FBF7F007FB1015110C02
:1011100041EA054100FB0EF58D4204FA03F408D9BB
:101120001CEB010100F1FF382FD28D422DD902387E
:101130006144491B92B2B1FBF7F507FB151142EA76
:10114000014205FB0EF1914208D91CEB020205F1A8
:10115000FF3816D2914214D9023D6244521A45EA30
:10116000004139E73146304609E73946E7E610469F
:10117000FCE6C145AAD2B8EB020E63EB0C050138C0
:10118000A4E74546EAE7034695E74046D1E7D0465F
:101190007CE7023D624433E708460BE764440238CB
:1011A00043E700BF704700BF2E2E2F73797374651D
:1011B0006D2F7372632F73746D333266342D6861D3
:1011C0006C2F73746D3332663478785F68616C5F4E
:1011D000636F727465782E63000000002E2E2F73EB
:1011E000797374656D2F7372632F73746D33326608
:1011F000342D68616C2F73746D3332663478785F88
:1012000068616C5F7263632E630000000000000081
:0C121000000000000102030406070809AA
:08121C00C0FCFF7F010000008F
:101224007856341201FFFFFF100000002400002054
:0C123400000000000024F4003254769802
:040000050800019559
:00000001FF
